:100000000C9446000C9450000C9450000C9450003A
:100010000C9450000C9450000C9450000C94500020
:100020000C9450000C9450000C9450000C94500010
:100030000C9450000C9450000C9450000C94500000
:100040000C9450000C9450000C9450000C945000F0
:100050000C9450000C9450000C9450000C945000E0
:100060000C9450000C9450000C9450000C945000D0
:100070000C9450000C9450000C9450000C945000C0
:100080000C9450000C9450000C94500011241FBE8E
:10009000CFEFD0E1DEBFCDBF0E946C010C943402E3
:1000A0000C940000892B11F4C69A0895C6980895FF
:1000B000892B11F4C59A0895C59808954F925F92BF
:1000C0006F927F928F929F92AF92BF920F93CF9336
:1000D000DF93019709F45AC0653171050CF467C0CC
:1000E0006A3171050CF46CC06F3171050CF475C088
:1000F000613271050CF47EC0633271050CF487C067
:10010000653271050CF4A4C00F2EFAEA4F2EF02DC3
:100110000F2EFAEA5F2EF02D0F2EFAEA6F2EF02D39
:100120000F2EFAEA7F2EF02D0F2EFAEA8F2EF02DE9
:100130000F2EFAEA9F2EF02D0F2EFAEAAF2EF02D99
:100140000F2EFAEABF2EF02DA3C0C20181709927AD
:100150000E945800242D352D462D572D682D792DC0
:100160008A2D9B2D01E00E941802422E532E642EF0
:10017000752E862E972EA82EB92E87EA91E6019726
:10018000F1F700C00000219701F785C044244A948C
:1001900055245A9466246A9477247A9488248A94FD
:1001A00099249A94AA24AA94BB24BA9471C0412C8D
:1001B000512C612C712C812C912CA12CB12C68C05C
:1001C000412C512C612C712C88248A9499249A9466
:1001D000AA24AA94BB24BA945BC0412C512C662457
:1001E0006A9477247A94812C912CAA24AA94BB2413
:1001F000BA944EC0412C55245A94612C77247A9499
:10020000812C99249A94A12CBB24BA9441C00F2E1E
:10021000F0EF4F2EF02D0F2EF0EF5F2EF02D0F2E62
:10022000F0EF6F2EF02D0F2EF0EF7F2EF02D0F2E12
:10023000F0EF8F2EF02D0F2EF0EF9F2EF02D0F2EC2
:10024000F0EFAF2EF02D0F2EF0EFBF2EF02D20C0CF
:100250000F2EFCEC4F2EF02D0F2EFCEC5F2EF02D10
:100260000F2EFCEC6F2EF02D0F2EFCEC7F2EF02DC0
:100270000F2EFCEC8F2EF02D0F2EFCEC9F2EF02D70
:100280000F2EFCECAF2EF02D0F2EFCECBF2EF02D20
:10029000C0E4D0E05ACFDF91CF910F91BF90AF90E3
:1002A0009F908F907F906F905F904F900895CF9325
:1002B00080B382958F70C1E08C27817090E00E949E
:1002C000520080B38295869587708C27817090E06C
:1002D0000E945800CF91089580E687BB0E94B70125
:1002E00081E090E00E9452002FEF89E698E12150D2
:1002F00080409040E1F700C0000080E090E00E9464
:1003000052008CE90E94BC0182E00E94DC018FEF68
:100310000E94DC010E94D4018CE90E94BC01082FDC
:1003200084E00E94DC018DE90E94C001D82F0E9468
:10033000FA01182F0E94F801C82F0E94D4011F71E2
:100340006C2F70E0712B729562956F7067277F70CC
:100350006727802F8D2B90E00E945E00C1CF00C0E8
:1003600000C000C000C000C000C0000008958D980B
:100370008C989598949808958D9AF1DF1DD00895E2
:100380008C9AEDDF8D98EBDF8C98E9DF8D9AE7DFB3
:1003900013D00895082E8D9AE2DF802D0DD088238A
:1003A00011F002D0F8CF08958C9A8D9AD8DF8C98EE
:1003B000D6DF8D98D4DF08950894881F01C0880F78
:1003C00059F08C9A18F400008D9802C08D9A00C0E4
:1003D000C6DF8C98C4DFF3CF8C9A8D98C0DF8C98E1
:1003E000849BFECF8827859981E0B9DF99270895FE
:1003F000882701C081E071E08C9A8D98B0DF8C98DD
:10040000AEDF849BFECF889485990894771FA0F770
:100410008C9A813011F08D9801C08D9AA0DF8C9854
:10042000849BFECF9CDF872F9927089597FB10F8B8
:10043000169400080F93083098F00850232F342F9B
:10044000452F562F672F782F892F902DF4CF0594A5
:1004500097958795779567955795479537952795FC
:0C0460000A95AAF70F910895F894FFCFB9
:00000001FF
